S00F0000636C6F70626F782E737265631E
S11300000C9447000C9459000C9459000C9459001A
S11300100C9459000C9459000C9459000C945900F8
S11300200C9459000C9484000C9459000C945900BD
S11300300C9459000C9459000C9459000C945900D8
S11300400C9459000C9459000C9459000C945900C8
S11300500C94DD030C9495040C9459000C945900F1
S11300600C9459000C9459000C9459000C945900A8
S11300700C9459000C9459000C9459000000000190
S1130080000010CD0112FB0115D601160D0211243A
S11300901FBECFEFD8E0DEBFCDBF21E0A0E0B1E0CE
S11300A001C01D92A93BB207E1F70E94BE010C9466
S11300B0C8040C94000088E0E1EBF1E0DF01982F24
S11300C01D929A95E9F790E1E1EAF1E0DF011D92D2
S11300D09A95E9F7E9E9F1E0DF011D928A95E9F7DC
S11300E00895E6EBF0E080818F7980838FEF87B904
S11300F082E08093B00091E09093B10099EF9093E7
S1130100B3008093700008951F920F920FB60F9260
S11301101124EF92FF920F931F932F933F934F93CA
S11301205F936F937F938F939F93AF93BF93CF937B
S1130130DF93EF93FF93909100019F5F903408F455
S1130140F3C010920001E090A101F090A201E1142B
S1130150F10439F081E0E81AF108F092A201E0928A
S1130160A1010091A3011091A4010115110531F021
S1130170015011091093A4010093A301C091A5019A
S1130180D091A601209729F02197D093A601C0937E
S1130190A501A091A701B091A801109729F011978A
S11301A0B093A801A093A701E091A901F091AA013D
S11301B0309729F03197F093AA01E093A901609157
S11301C0AB017091AC016115710531F06150710999
S11301D07093AC016093AB014091AD015091AE01BD
S11301E04115510531F0415051095093AE014093EE
S11301F0AD012091AF013091B0012115310509F015
S1130200B6C090E081E0EF2809F087C0F090B1011A
S11302109F1508F487C0880F012B09F077C010914F
S1130220B201911708F077C0880FCD2B09F067C091
S1130230C091B3019C1708F067C0880FAB2B09F07D
S113024057C0A091B4019A1708F057C0880FEF2B3C
S113025009F047C0E091B5019E1708F047C0880F28
S1130260672BC9F56091B6019617C8F5880F452B21
S113027021F54091B701941720F5880F232B29F11C
S11302802091A001921708F0816088B9FF91EF9145
S1130290DF91CF91BF91AF919F918F917F916F919A
S11302A05F914F913F912F911F910F91FF90EF908C
S11302B00F900FBE0F901F90189540919F019417B7
S11302C0E0F28160880F232BD9F62091B8019217B0
S11302D0E0F28160DACF60919E01961738F2816076
S11302E0C5CFE0919D019E1708F4B9CF8160B7CFC7
S11302F0A0919C019A1708F4A9CF8160A7CFC0915F
S11303009B019C1708F499CF816097CF10919A01B3
S1130310911708F489CF816087CFF09099019F15D8
S113032008F079CF80E077CF90930001E090A101AD
S1130330F090A2010091A3011091A401C091A50124
S1130340D091A601A091A701B091A801E091A901C3
S1130350F091AA016091AB017091AC014091AD01A3
S11303605091AE012091AF013091B0014BCF21509B
S113037031093093B0012093AF0143CF0E945B0059
S11303800E9471000E94CD0388E0E1EBF1E0DF01FF
S11303901D928A95E9F77894FFCF88E0E1EBF1E0CC
S11303A0DF011D928A95E9F780E00895FA01A1EB37
S11303B0B1E08C91808311968C9111978183129670
S11303C08C911297828313968C911397838314963E
S11303D08C911497848315968C9115978583169622
S11303E08C911697868317968C91878388E0F90100
S11303F0808380E00895623011F083E90895DC0180
S1130400EC91E830D0F711968C918F33B0F7F0E08F
S1130410EF54FE4F808380E00895643011F083E947
S11304200895DC01EC91E830D0F711962C911197E6
S11304302F33A8F7F0E0E756FE4F2083EC91F0E06D
S1130440EE0FFF1FEF55FE4F13962C91139730E0DC
S1130450322F222712968C91A901480F511D5183E6
S1130460408380E0089581E0809314010895EF9221
S1130470FF920F931F93CF93DF931F92CDB7DEB7F5
S1130480909114019230F1F168F17A018B0193306B
S1130490D1F0943079F4E091130191E09E0F9093A0
S11304A01301F0E0EF5FFE4F808360911101961716
S11304B008F04BC080E00F90DF91CF911F910F9116
S11304C0FF90EF900895803108F073C0882309F4F9
S11304D09BC094E090931401809311011092130136
S11304E080E0E9CF913031F781111AC082E0809326
S11304F0140180E00F90DF91CF911F910F91FF9035
S1130500EF9008958093120183E08093140180E0BA
S11305100F90DF91CF911F910F91FF90EF9008956D
S113052010921401FB0110828FEF818380E9828392
S1130530138284E0FA01808381E00F90DF91CF91F0
S11305401F910F91FF90EF90089585E0809314011F
S1130550F8011082809112018183ECE7F0E0E491CC
S11305608E1709F4F3C0EFE7F0E0E4918E1709F475
S1130570D0C0E2E8F0E0E4918E1709F4ACC0E5E8FD
S1130580F0E0E4918E1709F488C0E8E8F0E0E49123
S11305908E1709F464C0EBE8F0E0E491E817B9F0D1
S11305A081E00F90DF91CF911F910F91FF90EF9019
S11305B0089510921401FB0110828FEF818382E968
S11305C08283138284E0FA01808381E074CFECE8B3
S11305D0F0E0A591B491109709F4D6C01982A8014E
S11305E04C5F5F4F9E012F5F3F4F6091110181E08F
S11305F091E0FD010995F8018283898183838C5FF1
S1130600F701808381E0CDCF85E080931401FB0165
S11306101082809112018183ECE7F0E0E4918E1363
S1130620A2CFEDE7F0E0A591B491109709F49CC036
S113063019829E012F5F3F4FAB014C5F5F4F60916A
S1130640110181E091E0FD010995F801828389811E
S113065083838C5FF70180838091120184CFE9E862
S1130660F0E0A591B491109709F482C019829E011B
S11306702F5F3F4FA8014C5F5F4F6091110181E0F4
S113068091E0FD010995F8018283898183838C5F60
S1130690F7018083809112017ECFE6E8F0E0A59116
S11306A0B491109709F468C019829E012F5F3F4FDF
S11306B0A8014C5F5F4F6091110181E091E0FD0161
S11306C00995F8018283898183838C5FF701808394
S11306D0809112015ACFE3E8F0E0A591B49110970C
S11306E009F44EC019829E012F5F3F4FA8014C5F51
S11306F05F4F6091110181E091E0FD010995F801DE
S11307008283898183838C5FF701808380911201C6
S113071036CFE0E8F0E0A591B4911097D1F11982B9
S11307209E012F5F3F4FA8014C5F5F4F6091110105
S113073081E091E0FD010995F80182838981838339
S11307408C5FF70180838091120113CFEDE7F0E015
S1130750A591B491109741F019829E012F5F3F4FEC
S1130760A8014C5F5F4F6DCF94E9F8019283FBCEF3
S113077094E9F80192830FCF94E9F801928305CFAD
S113078094E9F8019283FBCE84E9F801828381E045
S113079008CF94E9F8019283ECCE519A82E08093D9
S11307A0C00088E98093C10086E08093C200109263
S11307B0C50080E18093C40008951F920F920FB684
S11307C00F9211242F933F934F935F936F937F93D3
S11307D08F939F93AF93BF93EF93FF938091C60042
S11307E08B3D09F476C008F46CC08C3DF9F08D3D66
S11307F021F490915601911174C045E151E066E1F4
S113080071E00E943702811120C0FF91EF91BF91E6
S1130810AF919F918F917F916F915F914F913F9194
S11308202F910F900FBE0F901F9018959091560125
S1130830992319F31092560180EC45E151E066E1E9
S113084071E00E943702882301F3609115018091C1
S11308505701E82FF0E0E75AFE4F90EC90838F5F4A
S11308608034D8F58093570170E06115710509F45F
S113087054C040E020E030E05BED13C09B3DA9F1A3
S1130880E82FF0E0E75AFE4F90838F5F803408F042
S113089080E04F5F242F042E000C330B26173707FC
S11308A0D4F5F901EA5EFE4F9081903C39F7E82FC8
S11308B0F0E0E75AFE4F50838F5F803400F59CEDE3
S11308C0DFCF803C09F099CF0E9433021092560189
S11308D09CCF81E08093560198CF1092570180E01D
S11308E0C3CF109256018BED88CFE82FF0E0E75A82
S11308F0FE4F90838F5F8034B0F49DEDC1CF8CEDBB
S11309008093590181E04F5F242F042E000C330B98
S11309102617370734F2809357018091C100806213
S11309208093C10072CF8DEDEBCF1F920F920FB663
S11309300F9211248F93EF93FF93E09158018091CC
S11309405701E817C1F081E08E0F80935801F0E061
S1130950E75AFE4F80818093C6008091580180340D
S113096010F010925801FF91EF918F910F900FBEEC
S11309700F901F9018958091C1008F7D8093C100C6
S1130980FF91EF918F910F900FBE0F901F901895CC
S1070990F894FFCF05
S9030000FC
